{
  "transactions": [
    {
      "hash": "0xa84eb03ecaf4f7cbe0d7615e30f27ebedb3a1a0464c0ad85c30dadd339693d4e",
      "transactionType": "CALL",
      "contractName": null,
      "contractAddress": "0x05e73354cfdd6745c338b50bcfdfa3aa6fa03408",
      "function": "initialize((address,address,uint24,int24,address),uint160)",
      "arguments": [
        "(0x036CbD53842c5426634e7929541eC2318f3dCF7e, 0x4200000000000000000000000000000000000006, 3000, 60, 0x2Af2B1F02685FC6c6b4f7fA17e1FcFc4c2eeB0C0)",
        "79228162514264337593543950336"
      ],
      "transaction": {
        "from": "0x1ab67c4ac117f3c850d5a93784b7701cc5816387",
        "to": "0x05e73354cfdd6745c338b50bcfdfa3aa6fa03408",
        "gas": "0x2cfa6",
        "value": "0x0",
        "input": "0x6276cbbe000000000000000000000000036cbd53842c5426634e7929541ec2318f3dcf7e00000000000000000000000042000000000000000000000000000000000000060000000000000000000000000000000000000000000000000000000000000bb8000000000000000000000000000000000000000000000000000000000000003c0000000000000000000000002af2b1f02685fc6c6b4f7fa17e1fcfc4c2eeb0c00000000000000000000000000000000000000001000000000000000000000000",
        "nonce": "0x3c",
        "chainId": "0x14a34"
      },
      "additionalContracts": [],
      "isFixedGasLimit": false
    }
  ],
  "receipts": [
    {
      "status": "0x1",
      "cumulativeGasUsed": "0x5baa24",
      "logs": [
        {
          "address": "0x05e73354cfdd6745c338b50bcfdfa3aa6fa03408",
          "topics": [
            "0xdd466e674ea557f56295e2d0218a125ea4b4f0f6f3307b95f85e6110838d6438",
            "0x7ac8df3b269340ec9dcd01bb90ba75f9267c1a078558d31730771d5c238e1366",
            "0x000000000000000000000000036cbd53842c5426634e7929541ec2318f3dcf7e",
            "0x0000000000000000000000004200000000000000000000000000000000000006"
          ],
          "data": "0x0000000000000000000000000000000000000000000000000000000000000bb8000000000000000000000000000000000000000000000000000000000000003c0000000000000000000000002af2b1f02685fc6c6b4f7fa17e1fcfc4c2eeb0c000000000000000000000000000000000000000010000000000000000000000000000000000000000000000000000000000000000000000000000000000000000",
          "blockHash": "0x47d24bdeca45097b8a969075394dedc0b7f4b2e9915d32110c3694946d92b247",
          "blockNumber": "0x16e6ef7",
          "transactionHash": "0xa84eb03ecaf4f7cbe0d7615e30f27ebedb3a1a0464c0ad85c30dadd339693d4e",
          "transactionIndex": "0x1b",
          "logIndex": "0x6e",
          "removed": false
        }
      ],
      "logsBloom": "0x00000000000000000000000000000000000000000000000000000000000000000000000100000000000000000000000000004000000000000020000000000000000000000000000000000000000000000000000000000000000000000000000000000000000000000000000000000000000010000000000000000000000000000000000044000008000001000000000000000001000400000000000000200000000000000000000000000000000000000000000000000000100000000000000000000000001004000000000000000000000000000000000000000000000000000000000000000000000000000040000000000000000000000000000000000000",
      "type": "0x2",
      "transactionHash": "0xa84eb03ecaf4f7cbe0d7615e30f27ebedb3a1a0464c0ad85c30dadd339693d4e",
      "transactionIndex": "0x1b",
      "blockHash": "0x47d24bdeca45097b8a969075394dedc0b7f4b2e9915d32110c3694946d92b247",
      "blockNumber": "0x16e6ef7",
      "gasUsed": "0x1ec12",
      "effectiveGasPrice": "0xe5cb2",
      "from": "0x1ab67c4ac117f3c850d5a93784b7701cc5816387",
      "to": "0x05e73354cfdd6745c338b50bcfdfa3aa6fa03408",
      "contractAddress": null,
      "l1BaseFeeScalar": "0x44d",
      "l1BlobBaseFee": "0x1",
      "l1BlobBaseFeeScalar": "0xa118b",
      "l1Fee": "0xb88b4",
      "l1GasPrice": "0x4dbba",
      "l1GasUsed": "0x86c"
    }
  ],
  "libraries": [],
  "pending": [],
  "returns": {},
  "timestamp": 1743797439,
  "chain": 84532,
  "commit": "386dd5f"
}